{
  "contractName": "CLBurnableToken",
  "abi": [
    {
      "inputs": [
        {
          "internalType": "string",
          "name": "name",
          "type": "string"
        },
        {
          "internalType": "string",
          "name": "symbol",
          "type": "string"
        },
        {
          "internalType": "uint256",
          "name": "totalSupply",
          "type": "uint256"
        },
        {
          "internalType": "address",
          "name": "owner",
          "type": "address"
        }
      ],
      "stateMutability": "nonpayable",
      "type": "constructor"
    },
    {
      "anonymous": false,
      "inputs": [
        {
          "indexed": true,
          "internalType": "address",
          "name": "owner",
          "type": "address"
        },
        {
          "indexed": true,
          "internalType": "address",
          "name": "spender",
          "type": "address"
        },
        {
          "indexed": false,
          "internalType": "uint256",
          "name": "value",
          "type": "uint256"
        }
      ],
      "name": "Approval",
      "type": "event"
    },
    {
      "anonymous": false,
      "inputs": [
        {
          "indexed": true,
          "internalType": "address",
          "name": "from",
          "type": "address"
        },
        {
          "indexed": true,
          "internalType": "address",
          "name": "to",
          "type": "address"
        },
        {
          "indexed": false,
          "internalType": "uint256",
          "name": "value",
          "type": "uint256"
        }
      ],
      "name": "Transfer",
      "type": "event"
    },
    {
      "inputs": [
        {
          "internalType": "address",
          "name": "owner",
          "type": "address"
        },
        {
          "internalType": "address",
          "name": "spender",
          "type": "address"
        }
      ],
      "name": "allowance",
      "outputs": [
        {
          "internalType": "uint256",
          "name": "",
          "type": "uint256"
        }
      ],
      "stateMutability": "view",
      "type": "function"
    },
    {
      "inputs": [
        {
          "internalType": "address",
          "name": "spender",
          "type": "address"
        },
        {
          "internalType": "uint256",
          "name": "amount",
          "type": "uint256"
        }
      ],
      "name": "approve",
      "outputs": [
        {
          "internalType": "bool",
          "name": "",
          "type": "bool"
        }
      ],
      "stateMutability": "nonpayable",
      "type": "function"
    },
    {
      "inputs": [
        {
          "internalType": "address",
          "name": "account",
          "type": "address"
        }
      ],
      "name": "balanceOf",
      "outputs": [
        {
          "internalType": "uint256",
          "name": "",
          "type": "uint256"
        }
      ],
      "stateMutability": "view",
      "type": "function"
    },
    {
      "inputs": [
        {
          "internalType": "uint256",
          "name": "amount",
          "type": "uint256"
        }
      ],
      "name": "burn",
      "outputs": [],
      "stateMutability": "nonpayable",
      "type": "function"
    },
    {
      "inputs": [
        {
          "internalType": "address",
          "name": "account",
          "type": "address"
        },
        {
          "internalType": "uint256",
          "name": "amount",
          "type": "uint256"
        }
      ],
      "name": "burnFrom",
      "outputs": [],
      "stateMutability": "nonpayable",
      "type": "function"
    },
    {
      "inputs": [],
      "name": "decimals",
      "outputs": [
        {
          "internalType": "uint8",
          "name": "",
          "type": "uint8"
        }
      ],
      "stateMutability": "view",
      "type": "function"
    },
    {
      "inputs": [
        {
          "internalType": "address",
          "name": "spender",
          "type": "address"
        },
        {
          "internalType": "uint256",
          "name": "subtractedValue",
          "type": "uint256"
        }
      ],
      "name": "decreaseAllowance",
      "outputs": [
        {
          "internalType": "bool",
          "name": "",
          "type": "bool"
        }
      ],
      "stateMutability": "nonpayable",
      "type": "function"
    },
    {
      "inputs": [
        {
          "internalType": "address",
          "name": "spender",
          "type": "address"
        },
        {
          "internalType": "uint256",
          "name": "addedValue",
          "type": "uint256"
        }
      ],
      "name": "increaseAllowance",
      "outputs": [
        {
          "internalType": "bool",
          "name": "",
          "type": "bool"
        }
      ],
      "stateMutability": "nonpayable",
      "type": "function"
    },
    {
      "inputs": [],
      "name": "name",
      "outputs": [
        {
          "internalType": "string",
          "name": "",
          "type": "string"
        }
      ],
      "stateMutability": "view",
      "type": "function"
    },
    {
      "inputs": [],
      "name": "symbol",
      "outputs": [
        {
          "internalType": "string",
          "name": "",
          "type": "string"
        }
      ],
      "stateMutability": "view",
      "type": "function"
    },
    {
      "inputs": [],
      "name": "totalSupply",
      "outputs": [
        {
          "internalType": "uint256",
          "name": "",
          "type": "uint256"
        }
      ],
      "stateMutability": "view",
      "type": "function"
    },
    {
      "inputs": [
        {
          "internalType": "address",
          "name": "recipient",
          "type": "address"
        },
        {
          "internalType": "uint256",
          "name": "amount",
          "type": "uint256"
        }
      ],
      "name": "transfer",
      "outputs": [
        {
          "internalType": "bool",
          "name": "",
          "type": "bool"
        }
      ],
      "stateMutability": "nonpayable",
      "type": "function"
    },
    {
      "inputs": [
        {
          "internalType": "address",
          "name": "sender",
          "type": "address"
        },
        {
          "internalType": "address",
          "name": "recipient",
          "type": "address"
        },
        {
          "internalType": "uint256",
          "name": "amount",
          "type": "uint256"
        }
      ],
      "name": "transferFrom",
      "outputs": [
        {
          "internalType": "bool",
          "name": "",
          "type": "bool"
        }
      ],
      "stateMutability": "nonpayable",
      "type": "function"
    }
  ],
  "bytecode": "0x60806040523480156200001157600080fd5b50604051620010ae380380620010ae8339810160408190526200003491620002c9565b8351849084906200004d90600390602085019062000178565b5080516200006390600490602084019062000178565b505050620000878183670de0b6b3a7640000620000819190620003b5565b62000091565b5050505062000440565b6001600160a01b038216620000c35760405162461bcd60e51b8152600401620000ba906200035a565b60405180910390fd5b620000d16000838362000173565b8060026000828254620000e591906200039a565b90915550506001600160a01b03821660009081526020819052604081208054839290620001149084906200039a565b90915550506040516001600160a01b038316906000907fddf252ad1be2c89b69c2b068fc378daa952ba7f163c4a11628f55a4df523b3ef906200015990859062000391565b60405180910390a36200016f6000838362000173565b5050565b505050565b8280546200018690620003d7565b90600052602060002090601f016020900481019282620001aa5760008555620001f5565b82601f10620001c557805160ff1916838001178555620001f5565b82800160010185558215620001f5579182015b82811115620001f5578251825591602001919060010190620001d8565b506200020392915062000207565b5090565b5b8082111562000203576000815560010162000208565b600082601f8301126200022f578081fd5b81516001600160401b03808211156200024c576200024c6200042a565b6040516020601f8401601f19168201810183811183821017156200027457620002746200042a565b60405283825285840181018710156200028b578485fd5b8492505b83831015620002ae57858301810151828401820152918201916200028f565b83831115620002bf57848185840101525b5095945050505050565b60008060008060808587031215620002df578384fd5b84516001600160401b0380821115620002f6578586fd5b62000304888389016200021e565b955060208701519150808211156200031a578485fd5b5062000329878288016200021e565b60408701516060880151919550935090506001600160a01b03811681146200034f578182fd5b939692955090935050565b6020808252601f908201527f45524332303a206d696e7420746f20746865207a65726f206164647265737300604082015260600190565b90815260200190565b60008219821115620003b057620003b062000414565b500190565b6000816000190483118215151615620003d257620003d262000414565b500290565b600281046001821680620003ec57607f821691505b602082108114156200040e57634e487b7160e01b600052602260045260246000fd5b50919050565b634e487b7160e01b600052601160045260246000fd5b634e487b7160e01b600052604160045260246000fd5b610c5e80620004506000396000f3fe608060405234801561001057600080fd5b50600436106100cf5760003560e01c806342966c681161008c57806395d89b411161006657806395d89b411461019d578063a457c2d7146101a5578063a9059cbb146101b8578063dd62ed3e146101cb576100cf565b806342966c681461016257806370a082311461017757806379cc67901461018a576100cf565b806306fdde03146100d4578063095ea7b3146100f257806318160ddd1461011257806323b872dd14610127578063313ce5671461013a578063395093511461014f575b600080fd5b6100dc6101de565b6040516100e99190610896565b60405180910390f35b61010561010036600461084a565b610270565b6040516100e9919061088b565b61011a61028d565b6040516100e99190610b91565b61010561013536600461080f565b610293565b61014261032c565b6040516100e99190610b9a565b61010561015d36600461084a565b610331565b610175610170366004610873565b610385565b005b61011a6101853660046107bc565b610399565b61017561019836600461084a565b6103b8565b6100dc61040b565b6101056101b336600461084a565b61041a565b6101056101c636600461084a565b610493565b61011a6101d93660046107dd565b6104a7565b6060600380546101ed90610bd7565b80601f016020809104026020016040519081016040528092919081815260200182805461021990610bd7565b80156102665780601f1061023b57610100808354040283529160200191610266565b820191906000526020600020905b81548152906001019060200180831161024957829003601f168201915b5050505050905090565b600061028461027d6104d2565b84846104d6565b50600192915050565b60025490565b60006102a084848461058a565b6001600160a01b0384166000908152600160205260408120816102c16104d2565b6001600160a01b03166001600160a01b031681526020019081526020016000205490508281101561030d5760405162461bcd60e51b8152600401610304906109f6565b60405180910390fd5b610321856103196104d2565b8584036104d6565b506001949350505050565b601290565b600061028461033e6104d2565b84846001600061034c6104d2565b6001600160a01b03908116825260208083019390935260409182016000908120918b16815292529020546103809190610ba8565b6104d6565b6103966103906104d2565b826106b4565b50565b6001600160a01b0381166000908152602081905260409020545b919050565b60006103c6836101d96104d2565b9050818110156103e85760405162461bcd60e51b815260040161030490610a3e565b6103fc836103f46104d2565b8484036104d6565b61040683836106b4565b505050565b6060600480546101ed90610bd7565b600080600160006104296104d2565b6001600160a01b03908116825260208083019390935260409182016000908120918816815292529020549050828110156104755760405162461bcd60e51b815260040161030490610b4c565b6104896104806104d2565b858584036104d6565b5060019392505050565b60006102846104a06104d2565b848461058a565b6001600160a01b03918216600090815260016020908152604080832093909416825291909152205490565b3390565b6001600160a01b0383166104fc5760405162461bcd60e51b815260040161030490610b08565b6001600160a01b0382166105225760405162461bcd60e51b81526004016103049061096e565b6001600160a01b0380841660008181526001602090815260408083209487168084529490915290819020849055517f8c5be1e5ebec7d5bd14f71427d1e84f3dd0314c0f7b2291e5b200ac8c7c3b9259061057d908590610b91565b60405180910390a3505050565b6001600160a01b0383166105b05760405162461bcd60e51b815260040161030490610ac3565b6001600160a01b0382166105d65760405162461bcd60e51b8152600401610304906108e9565b6105e1838383610406565b6001600160a01b0383166000908152602081905260409020548181101561061a5760405162461bcd60e51b8152600401610304906109b0565b6001600160a01b03808516600090815260208190526040808220858503905591851681529081208054849290610651908490610ba8565b92505081905550826001600160a01b0316846001600160a01b03167fddf252ad1be2c89b69c2b068fc378daa952ba7f163c4a11628f55a4df523b3ef8460405161069b9190610b91565b60405180910390a36106ae848484610406565b50505050565b6001600160a01b0382166106da5760405162461bcd60e51b815260040161030490610a82565b6106e682600083610406565b6001600160a01b0382166000908152602081905260409020548181101561071f5760405162461bcd60e51b81526004016103049061092c565b6001600160a01b038316600090815260208190526040812083830390556002805484929061074e908490610bc0565b90915550506040516000906001600160a01b038516907fddf252ad1be2c89b69c2b068fc378daa952ba7f163c4a11628f55a4df523b3ef90610791908690610b91565b60405180910390a361040683600084610406565b80356001600160a01b03811681146103b357600080fd5b6000602082840312156107cd578081fd5b6107d6826107a5565b9392505050565b600080604083850312156107ef578081fd5b6107f8836107a5565b9150610806602084016107a5565b90509250929050565b600080600060608486031215610823578081fd5b61082c846107a5565b925061083a602085016107a5565b9150604084013590509250925092565b6000806040838503121561085c578182fd5b610865836107a5565b946020939093013593505050565b600060208284031215610884578081fd5b5035919050565b901515815260200190565b6000602080835283518082850152825b818110156108c2578581018301518582016040015282016108a6565b818111156108d35783604083870101525b50601f01601f1916929092016040019392505050565b60208082526023908201527f45524332303a207472616e7366657220746f20746865207a65726f206164647260408201526265737360e81b606082015260800190565b60208082526022908201527f45524332303a206275726e20616d6f756e7420657863656564732062616c616e604082015261636560f01b606082015260800190565b60208082526022908201527f45524332303a20617070726f766520746f20746865207a65726f206164647265604082015261737360f01b606082015260800190565b60208082526026908201527f45524332303a207472616e7366657220616d6f756e7420657863656564732062604082015265616c616e636560d01b606082015260800190565b60208082526028908201527f45524332303a207472616e7366657220616d6f756e74206578636565647320616040820152676c6c6f77616e636560c01b606082015260800190565b60208082526024908201527f45524332303a206275726e20616d6f756e74206578636565647320616c6c6f77604082015263616e636560e01b606082015260800190565b60208082526021908201527f45524332303a206275726e2066726f6d20746865207a65726f206164647265736040820152607360f81b606082015260800190565b60208082526025908201527f45524332303a207472616e736665722066726f6d20746865207a65726f206164604082015264647265737360d81b606082015260800190565b60208082526024908201527f45524332303a20617070726f76652066726f6d20746865207a65726f206164646040820152637265737360e01b606082015260800190565b60208082526025908201527f45524332303a2064656372656173656420616c6c6f77616e63652062656c6f77604082015264207a65726f60d81b606082015260800190565b90815260200190565b60ff91909116815260200190565b60008219821115610bbb57610bbb610c12565b500190565b600082821015610bd257610bd2610c12565b500390565b600281046001821680610beb57607f821691505b60208210811415610c0c57634e487b7160e01b600052602260045260246000fd5b50919050565b634e487b7160e01b600052601160045260246000fdfea2646970667358221220649d0aaa2cceb4b5731962b7d7c19b9506ca06b76d1bb99a39ce4b2ddfe4e84464736f6c63430008000033",
  "immutableReferences": {},
  "source": "//SPDX-License-Identifier: UNLICENSED\r\npragma solidity ^0.8.0;\r\n\r\nimport \"@openzeppelin/contracts/token/ERC20/ERC20.sol\";\r\nimport \"@openzeppelin/contracts/token/ERC20/extensions/ERC20Burnable.sol\";\r\n\r\ncontract CLBurnableToken is ERC20, ERC20Burnable {\r\n    constructor(string memory name, string memory symbol, uint256 totalSupply, address owner) ERC20(name, symbol) {\r\n        _mint(owner, totalSupply * 10 ** 18);\r\n    }\r\n}",
  "sourcePath": "D:\\Projetos\\cryptolauncher\\contracts\\tokens\\CLBurnableToken.sol",
  "compiler": {
    "name": "solc",
    "version": "0.8.0+commit.c7dfd78e.Emscripten.clang"
  },
  "schemaVersion": "3.4.4",
  "updatedAt": "2021-12-19T21:50:46.872Z",
  "devdoc": {
    "kind": "dev",
    "methods": {
      "allowance(address,address)": {
        "details": "See {IERC20-allowance}."
      },
      "approve(address,uint256)": {
        "details": "See {IERC20-approve}. Requirements: - `spender` cannot be the zero address."
      },
      "balanceOf(address)": {
        "details": "See {IERC20-balanceOf}."
      },
      "burn(uint256)": {
        "details": "Destroys `amount` tokens from the caller. See {ERC20-_burn}."
      },
      "burnFrom(address,uint256)": {
        "details": "Destroys `amount` tokens from `account`, deducting from the caller's allowance. See {ERC20-_burn} and {ERC20-allowance}. Requirements: - the caller must have allowance for ``accounts``'s tokens of at least `amount`."
      },
      "decimals()": {
        "details": "Returns the number of decimals used to get its user representation. For example, if `decimals` equals `2`, a balance of `505` tokens should be displayed to a user as `5.05` (`505 / 10 ** 2`). Tokens usually opt for a value of 18, imitating the relationship between Ether and Wei. This is the value {ERC20} uses, unless this function is overridden; NOTE: This information is only used for _display_ purposes: it in no way affects any of the arithmetic of the contract, including {IERC20-balanceOf} and {IERC20-transfer}."
      },
      "decreaseAllowance(address,uint256)": {
        "details": "Atomically decreases the allowance granted to `spender` by the caller. This is an alternative to {approve} that can be used as a mitigation for problems described in {IERC20-approve}. Emits an {Approval} event indicating the updated allowance. Requirements: - `spender` cannot be the zero address. - `spender` must have allowance for the caller of at least `subtractedValue`."
      },
      "increaseAllowance(address,uint256)": {
        "details": "Atomically increases the allowance granted to `spender` by the caller. This is an alternative to {approve} that can be used as a mitigation for problems described in {IERC20-approve}. Emits an {Approval} event indicating the updated allowance. Requirements: - `spender` cannot be the zero address."
      },
      "name()": {
        "details": "Returns the name of the token."
      },
      "symbol()": {
        "details": "Returns the symbol of the token, usually a shorter version of the name."
      },
      "totalSupply()": {
        "details": "See {IERC20-totalSupply}."
      },
      "transfer(address,uint256)": {
        "details": "See {IERC20-transfer}. Requirements: - `recipient` cannot be the zero address. - the caller must have a balance of at least `amount`."
      },
      "transferFrom(address,address,uint256)": {
        "details": "See {IERC20-transferFrom}. Emits an {Approval} event indicating the updated allowance. This is not required by the EIP. See the note at the beginning of {ERC20}. Requirements: - `sender` and `recipient` cannot be the zero address. - `sender` must have a balance of at least `amount`. - the caller must have allowance for ``sender``'s tokens of at least `amount`."
      }
    },
    "version": 1
  },
  "userdoc": {
    "kind": "user",
    "methods": {},
    "version": 1
  }
}