{
  "contractName": "CryptoLauncher",
  "abi": [
    {
      "inputs": [
        {
          "internalType": "address",
          "name": "",
          "type": "address"
        },
        {
          "internalType": "uint256",
          "name": "",
          "type": "uint256"
        }
      ],
      "name": "_launchedTokens",
      "outputs": [
        {
          "internalType": "enum CryptoLauncher.TokenType",
          "name": "tokenType",
          "type": "uint8"
        },
        {
          "internalType": "contract ERC20",
          "name": "token",
          "type": "address"
        }
      ],
      "stateMutability": "view",
      "type": "function"
    },
    {
      "inputs": [],
      "name": "getMyLaunchedTokensLength",
      "outputs": [
        {
          "internalType": "uint256",
          "name": "",
          "type": "uint256"
        }
      ],
      "stateMutability": "view",
      "type": "function"
    },
    {
      "inputs": [
        {
          "internalType": "uint256",
          "name": "index",
          "type": "uint256"
        }
      ],
      "name": "getMyLaunchedToken",
      "outputs": [
        {
          "components": [
            {
              "internalType": "enum CryptoLauncher.TokenType",
              "name": "tokenType",
              "type": "uint8"
            },
            {
              "internalType": "contract ERC20",
              "name": "token",
              "type": "address"
            }
          ],
          "internalType": "struct CryptoLauncher.LaunchedToken",
          "name": "",
          "type": "tuple"
        }
      ],
      "stateMutability": "view",
      "type": "function"
    },
    {
      "inputs": [
        {
          "internalType": "string",
          "name": "name",
          "type": "string"
        },
        {
          "internalType": "string",
          "name": "symbol",
          "type": "string"
        },
        {
          "internalType": "uint256",
          "name": "totalSupply",
          "type": "uint256"
        }
      ],
      "name": "launchSimpleToken",
      "outputs": [],
      "stateMutability": "payable",
      "type": "function"
    },
    {
      "inputs": [
        {
          "internalType": "string",
          "name": "name",
          "type": "string"
        },
        {
          "internalType": "string",
          "name": "symbol",
          "type": "string"
        },
        {
          "internalType": "uint256",
          "name": "totalSupply",
          "type": "uint256"
        }
      ],
      "name": "launchMintableToken",
      "outputs": [],
      "stateMutability": "payable",
      "type": "function"
    },
    {
      "inputs": [
        {
          "internalType": "string",
          "name": "name",
          "type": "string"
        },
        {
          "internalType": "string",
          "name": "symbol",
          "type": "string"
        },
        {
          "internalType": "uint256",
          "name": "totalSupply",
          "type": "uint256"
        }
      ],
      "name": "launchBurnableToken",
      "outputs": [],
      "stateMutability": "payable",
      "type": "function"
    },
    {
      "inputs": [
        {
          "internalType": "string",
          "name": "name",
          "type": "string"
        },
        {
          "internalType": "string",
          "name": "symbol",
          "type": "string"
        },
        {
          "internalType": "uint256",
          "name": "totalSupply",
          "type": "uint256"
        }
      ],
      "name": "launchMintableBurnableToken",
      "outputs": [],
      "stateMutability": "payable",
      "type": "function"
    },
    {
      "inputs": [
        {
          "internalType": "uint256",
          "name": "action",
          "type": "uint256"
        },
        {
          "internalType": "uint256",
          "name": "value",
          "type": "uint256"
        }
      ],
      "name": "setFee",
      "outputs": [],
      "stateMutability": "nonpayable",
      "type": "function"
    },
    {
      "inputs": [],
      "name": "withdrawFunds",
      "outputs": [],
      "stateMutability": "nonpayable",
      "type": "function"
    }
  ],
  "bytecode": "0x6080604052600080546001600160a01b031916735b38da6a701c568545dcfcb03fcb875f56beddc417905566470de4df8200006001556658d15e17628000600255666a94d74f430000600355668e1bc9bf04000060045534801561006257600080fd5b5061509f806100726000396000f3fe608060405260043610620000925760003560e01c80634f24b34b11620000615780634f24b34b146200011d57806352f7c98814620001445780635ba6f26514620001695780638ffadfe41462000180578063aee2a82e14620001975762000092565b8063160c37ab146200009757806324600fc314620000d5578063430dc3c814620000ef5780634d59d1541462000106575b600080fd5b348015620000a457600080fd5b50620000bc620000b636600462000737565b620001cb565b604051620000cc9291906200088c565b60405180910390f35b348015620000e257600080fd5b50620000ed6200020d565b005b620000ed620001003660046200076f565b6200026a565b620000ed620001173660046200076f565b6200037b565b3480156200012a57600080fd5b506200013562000406565b604051620000cc919062000988565b3480156200015157600080fd5b50620000ed62000163366004620007f9565b62000419565b620000ed6200017a3660046200076f565b62000495565b620000ed620001913660046200076f565b6200051f565b348015620001a457600080fd5b50620001bc620001b6366004620007e0565b620005aa565b604051620000cc91906200095c565b60056020528160005260406000208181548110620001e857600080fd5b60009182526020909120015460ff8116925061010090046001600160a01b0316905082565b6000546001600160a01b03163314620002435760405162461bcd60e51b81526004016200023a90620008ff565b60405180910390fd5b60405133904780156108fc02916000818181858888f193505050506200026857600080fd5b565b6002543410156200028f5760405162461bcd60e51b81526004016200023a9062000936565b600083838333604051620002a3906200065f565b620002b29493929190620008b4565b604051809103906000f080158015620002cf573d6000803e3d6000fd5b50336000908152600560205260409081902081518083019092529192508060015b81526001600160a01b038416602091820152825460018181018555600094855291909320825193018054929390929091839160ff1916908360038111156200034857634e487b7160e01b600052602160045260246000fd5b02179055506020919091015181546001600160a01b0390911661010002610100600160a81b031990911617905550505050565b600454341015620003a05760405162461bcd60e51b81526004016200023a9062000936565b600083838333604051620003b4906200066d565b620003c39493929190620008b4565b604051809103906000f080158015620003e0573d6000803e3d6000fd5b5033600090815260056020526040908190208151808301909252919250806003620002f0565b3360009081526005602052604090205490565b6000546001600160a01b03163314620004465760405162461bcd60e51b81526004016200023a90620008ff565b816200045757600181905562000491565b60018214156200046c57600281905562000491565b60028214156200048157600381905562000491565b6003821415620004915760028190555b5050565b600154341015620004ba5760405162461bcd60e51b81526004016200023a9062000936565b600083838333604051620004ce906200067b565b620004dd9493929190620008b4565b604051809103906000f080158015620004fa573d6000803e3d6000fd5b50336000908152600560205260408082208151808301909252929350908190620002f0565b600354341015620005445760405162461bcd60e51b81526004016200023a9062000936565b600083838333604051620005589062000689565b620005679493929190620008b4565b604051809103906000f08015801562000584573d6000803e3d6000fd5b5033600090815260056020526040908190208151808301909252919250806002620002f0565b620005b462000697565b336000908152600560205260409020805483908110620005e457634e487b7160e01b600052603260045260246000fd5b600091825260209091206040805180820190915291018054829060ff1660038111156200062157634e487b7160e01b600052602160045260246000fd5b60038111156200064157634e487b7160e01b600052602160045260246000fd5b8152905461010090046001600160a01b031660209091015292915050565b61120f80620009a883390190565b61149b8062001bb783390190565b610f6a806200305283390190565b6110ae8062003fbc83390190565b604080518082019091526000808252602082015290565b600082601f830112620006bf578081fd5b813567ffffffffffffffff80821115620006dd57620006dd62000991565b604051601f8301601f19168101602001828111828210171562000704576200070462000991565b6040528281528483016020018610156200071c578384fd5b82602086016020830137918201602001929092529392505050565b600080604083850312156200074a578182fd5b82356001600160a01b038116811462000761578283fd5b946020939093013593505050565b60008060006060848603121562000784578081fd5b833567ffffffffffffffff808211156200079c578283fd5b620007aa87838801620006ae565b94506020860135915080821115620007c0578283fd5b50620007cf86828701620006ae565b925050604084013590509250925092565b600060208284031215620007f2578081fd5b5035919050565b600080604083850312156200080c578182fd5b50508035926020909101359150565b600481106200083a57634e487b7160e01b600052602160045260246000fd5b9052565b60008151808452815b81811015620008655760208185018101518683018201520162000847565b81811115620008775782602083870101525b50601f01601f19169290920160200192915050565b604081016200089c82856200081b565b6001600160a01b039290921660209190910152919050565b600060808252620008c960808301876200083e565b8281036020840152620008dd81876200083e565b604084019590955250506001600160a01b039190911660609091015292915050565b60208082526017908201527f43616c6c6572206973206e6f7420746865206f776e6572000000000000000000604082015260600190565b6020808252600c908201526b119959481c995c5d5a5c995960a21b604082015260600190565b6000604082019050620009718284516200081b565b6020928301516001600160a01b0316919092015290565b90815260200190565b634e487b7160e01b600052604160045260246000fdfe60806040523480156200001157600080fd5b506040516200120f3803806200120f833981016040819052620000349162000342565b8351849084906200004d906003906020850190620001f1565b50805162000063906004906020840190620001f1565b505050620000806200007a620000b460201b60201c565b620000b8565b6200008b81620000b8565b620000aa81620000a484670de0b6b3a76400006200042e565b6200010a565b50505050620004b9565b3390565b600580546001600160a01b038381166001600160a01b0319831681179093556040519116919082907f8be0079c531659141344cd1fd0a4f28419497f9722a3daafe3b4186f6b6457e090600090a35050565b6001600160a01b0382166200013c5760405162461bcd60e51b81526004016200013390620003d3565b60405180910390fd5b6200014a60008383620001ec565b80600260008282546200015e919062000413565b90915550506001600160a01b038216600090815260208190526040812080548392906200018d90849062000413565b90915550506040516001600160a01b038316906000907fddf252ad1be2c89b69c2b068fc378daa952ba7f163c4a11628f55a4df523b3ef90620001d29085906200040a565b60405180910390a3620001e860008383620001ec565b5050565b505050565b828054620001ff9062000450565b90600052602060002090601f0160209004810192826200022357600085556200026e565b82601f106200023e57805160ff19168380011785556200026e565b828001600101855582156200026e579182015b828111156200026e57825182559160200191906001019062000251565b506200027c92915062000280565b5090565b5b808211156200027c576000815560010162000281565b600082601f830112620002a8578081fd5b81516001600160401b0380821115620002c557620002c5620004a3565b6040516020601f8401601f1916820181018381118382101715620002ed57620002ed620004a3565b604052838252858401810187101562000304578485fd5b8492505b8383101562000327578583018101518284018201529182019162000308565b838311156200033857848185840101525b5095945050505050565b6000806000806080858703121562000358578384fd5b84516001600160401b03808211156200036f578586fd5b6200037d8883890162000297565b9550602087015191508082111562000393578485fd5b50620003a28782880162000297565b60408701516060880151919550935090506001600160a01b0381168114620003c8578182fd5b939692955090935050565b6020808252601f908201527f45524332303a206d696e7420746f20746865207a65726f206164647265737300604082015260600190565b90815260200190565b600082198211156200042957620004296200048d565b500190565b60008160001904831182151516156200044b576200044b6200048d565b500290565b6002810460018216806200046557607f821691505b602082108114156200048757634e487b7160e01b600052602260045260246000fd5b50919050565b634e487b7160e01b600052601160045260246000fd5b634e487b7160e01b600052604160045260246000fd5b610d4680620004c96000396000f3fe608060405234801561001057600080fd5b50600436106100f55760003560e01c806370a0823111610097578063a457c2d711610066578063a457c2d7146101d5578063a9059cbb146101e8578063dd62ed3e146101fb578063f2fde38b1461020e576100f5565b806370a082311461019d578063715018a6146101b05780638da5cb5b146101b857806395d89b41146101cd576100f5565b806323b872dd116100d357806323b872dd1461014d578063313ce56714610160578063395093511461017557806340c10f1914610188576100f5565b806306fdde03146100fa578063095ea7b31461011857806318160ddd14610138575b600080fd5b610102610221565b60405161010f91906109b4565b60405180910390f35b61012b61012636600461096c565b6102b3565b60405161010f91906109a9565b6101406102d0565b60405161010f9190610c9a565b61012b61015b366004610931565b6102d6565b61016861036f565b60405161010f9190610ca3565b61012b61018336600461096c565b610374565b61019b61019636600461096c565b6103c8565b005b6101406101ab3660046108de565b610415565b61019b610434565b6101c061047f565b60405161010f9190610995565b61010261048e565b61012b6101e336600461096c565b61049d565b61012b6101f636600461096c565b610516565b6101406102093660046108ff565b61052a565b61019b61021c3660046108de565b610555565b60606003805461023090610cd5565b80601f016020809104026020016040519081016040528092919081815260200182805461025c90610cd5565b80156102a95780601f1061027e576101008083540402835291602001916102a9565b820191906000526020600020905b81548152906001019060200180831161028c57829003601f168201915b5050505050905090565b60006102c76102c06105c6565b84846105ca565b50600192915050565b60025490565b60006102e384848461067e565b6001600160a01b0384166000908152600160205260408120816103046105c6565b6001600160a01b03166001600160a01b03168152602001908152602001600020549050828110156103505760405162461bcd60e51b815260040161034790610b18565b60405180910390fd5b6103648561035c6105c6565b8584036105ca565b506001949350505050565b601290565b60006102c76103816105c6565b84846001600061038f6105c6565b6001600160a01b03908116825260208083019390935260409182016000908120918b16815292529020546103c39190610cb1565b6105ca565b6103d06105c6565b6001600160a01b03166103e161047f565b6001600160a01b0316146104075760405162461bcd60e51b815260040161034790610b60565b61041182826107a8565b5050565b6001600160a01b0381166000908152602081905260409020545b919050565b61043c6105c6565b6001600160a01b031661044d61047f565b6001600160a01b0316146104735760405162461bcd60e51b815260040161034790610b60565b61047d6000610870565b565b6005546001600160a01b031690565b60606004805461023090610cd5565b600080600160006104ac6105c6565b6001600160a01b03908116825260208083019390935260409182016000908120918816815292529020549050828110156104f85760405162461bcd60e51b815260040161034790610c1e565b61050c6105036105c6565b858584036105ca565b5060019392505050565b60006102c76105236105c6565b848461067e565b6001600160a01b03918216600090815260016020908152604080832093909416825291909152205490565b61055d6105c6565b6001600160a01b031661056e61047f565b6001600160a01b0316146105945760405162461bcd60e51b815260040161034790610b60565b6001600160a01b0381166105ba5760405162461bcd60e51b815260040161034790610a4a565b6105c381610870565b50565b3390565b6001600160a01b0383166105f05760405162461bcd60e51b815260040161034790610bda565b6001600160a01b0382166106165760405162461bcd60e51b815260040161034790610a90565b6001600160a01b0380841660008181526001602090815260408083209487168084529490915290819020849055517f8c5be1e5ebec7d5bd14f71427d1e84f3dd0314c0f7b2291e5b200ac8c7c3b92590610671908590610c9a565b60405180910390a3505050565b6001600160a01b0383166106a45760405162461bcd60e51b815260040161034790610b95565b6001600160a01b0382166106ca5760405162461bcd60e51b815260040161034790610a07565b6106d58383836108c2565b6001600160a01b0383166000908152602081905260409020548181101561070e5760405162461bcd60e51b815260040161034790610ad2565b6001600160a01b03808516600090815260208190526040808220858503905591851681529081208054849290610745908490610cb1565b92505081905550826001600160a01b0316846001600160a01b03167fddf252ad1be2c89b69c2b068fc378daa952ba7f163c4a11628f55a4df523b3ef8460405161078f9190610c9a565b60405180910390a36107a28484846108c2565b50505050565b6001600160a01b0382166107ce5760405162461bcd60e51b815260040161034790610c63565b6107da600083836108c2565b80600260008282546107ec9190610cb1565b90915550506001600160a01b03821660009081526020819052604081208054839290610819908490610cb1565b90915550506040516001600160a01b038316906000907fddf252ad1be2c89b69c2b068fc378daa952ba7f163c4a11628f55a4df523b3ef9061085c908590610c9a565b60405180910390a3610411600083836108c2565b600580546001600160a01b038381166001600160a01b0319831681179093556040519116919082907f8be0079c531659141344cd1fd0a4f28419497f9722a3daafe3b4186f6b6457e090600090a35050565b505050565b80356001600160a01b038116811461042f57600080fd5b6000602082840312156108ef578081fd5b6108f8826108c7565b9392505050565b60008060408385031215610911578081fd5b61091a836108c7565b9150610928602084016108c7565b90509250929050565b600080600060608486031215610945578081fd5b61094e846108c7565b925061095c602085016108c7565b9150604084013590509250925092565b6000806040838503121561097e578182fd5b610987836108c7565b946020939093013593505050565b6001600160a01b0391909116815260200190565b901515815260200190565b6000602080835283518082850152825b818110156109e0578581018301518582016040015282016109c4565b818111156109f15783604083870101525b50601f01601f1916929092016040019392505050565b60208082526023908201527f45524332303a207472616e7366657220746f20746865207a65726f206164647260408201526265737360e81b606082015260800190565b60208082526026908201527f4f776e61626c653a206e6577206f776e657220697320746865207a65726f206160408201526564647265737360d01b606082015260800190565b60208082526022908201527f45524332303a20617070726f766520746f20746865207a65726f206164647265604082015261737360f01b606082015260800190565b60208082526026908201527f45524332303a207472616e7366657220616d6f756e7420657863656564732062604082015265616c616e636560d01b606082015260800190565b60208082526028908201527f45524332303a207472616e7366657220616d6f756e74206578636565647320616040820152676c6c6f77616e636560c01b606082015260800190565b6020808252818101527f4f776e61626c653a2063616c6c6572206973206e6f7420746865206f776e6572604082015260600190565b60208082526025908201527f45524332303a207472616e736665722066726f6d20746865207a65726f206164604082015264647265737360d81b606082015260800190565b60208082526024908201527f45524332303a20617070726f76652066726f6d20746865207a65726f206164646040820152637265737360e01b606082015260800190565b60208082526025908201527f45524332303a2064656372656173656420616c6c6f77616e63652062656c6f77604082015264207a65726f60d81b606082015260800190565b6020808252601f908201527f45524332303a206d696e7420746f20746865207a65726f206164647265737300604082015260600190565b90815260200190565b60ff91909116815260200190565b60008219821115610cd057634e487b7160e01b81526011600452602481fd5b500190565b600281046001821680610ce957607f821691505b60208210811415610d0a57634e487b7160e01b600052602260045260246000fd5b5091905056fea2646970667358221220a3f171e2e42ca39d5edf706851e6d167dbb673bf400745bdd59ee96f93dcbe6064736f6c6343000800003360806040523480156200001157600080fd5b506040516200149b3803806200149b833981016040819052620000349162000342565b8351849084906200004d906003906020850190620001f1565b50805162000063906004906020840190620001f1565b505050620000806200007a620000b460201b60201c565b620000b8565b6200008b81620000b8565b620000aa81620000a484670de0b6b3a76400006200042e565b6200010a565b50505050620004b9565b3390565b600580546001600160a01b038381166001600160a01b0319831681179093556040519116919082907f8be0079c531659141344cd1fd0a4f28419497f9722a3daafe3b4186f6b6457e090600090a35050565b6001600160a01b0382166200013c5760405162461bcd60e51b81526004016200013390620003d3565b60405180910390fd5b6200014a60008383620001ec565b80600260008282546200015e919062000413565b90915550506001600160a01b038216600090815260208190526040812080548392906200018d90849062000413565b90915550506040516001600160a01b038316906000907fddf252ad1be2c89b69c2b068fc378daa952ba7f163c4a11628f55a4df523b3ef90620001d29085906200040a565b60405180910390a3620001e860008383620001ec565b5050565b505050565b828054620001ff9062000450565b90600052602060002090601f0160209004810192826200022357600085556200026e565b82601f106200023e57805160ff19168380011785556200026e565b828001600101855582156200026e579182015b828111156200026e57825182559160200191906001019062000251565b506200027c92915062000280565b5090565b5b808211156200027c576000815560010162000281565b600082601f830112620002a8578081fd5b81516001600160401b0380821115620002c557620002c5620004a3565b6040516020601f8401601f1916820181018381118382101715620002ed57620002ed620004a3565b604052838252858401810187101562000304578485fd5b8492505b8383101562000327578583018101518284018201529182019162000308565b838311156200033857848185840101525b5095945050505050565b6000806000806080858703121562000358578384fd5b84516001600160401b03808211156200036f578586fd5b6200037d8883890162000297565b9550602087015191508082111562000393578485fd5b50620003a28782880162000297565b60408701516060880151919550935090506001600160a01b0381168114620003c8578182fd5b939692955090935050565b6020808252601f908201527f45524332303a206d696e7420746f20746865207a65726f206164647265737300604082015260600190565b90815260200190565b600082198211156200042957620004296200048d565b500190565b60008160001904831182151516156200044b576200044b6200048d565b500290565b6002810460018216806200046557607f821691505b602082108114156200048757634e487b7160e01b600052602260045260246000fd5b50919050565b634e487b7160e01b600052601160045260246000fd5b634e487b7160e01b600052604160045260246000fd5b610fd280620004c96000396000f3fe608060405234801561001057600080fd5b506004361061010b5760003560e01c806370a08231116100a257806395d89b411161007157806395d89b4114610209578063a457c2d714610211578063a9059cbb14610224578063dd62ed3e14610237578063f2fde38b1461024a5761010b565b806370a08231146101c6578063715018a6146101d957806379cc6790146101e15780638da5cb5b146101f45761010b565b8063313ce567116100de578063313ce56714610176578063395093511461018b57806340c10f191461019e57806342966c68146101b35761010b565b806306fdde0314610110578063095ea7b31461012e57806318160ddd1461014e57806323b872dd14610163575b600080fd5b61011861025d565b6040516101259190610b58565b60405180910390f35b61014161013c366004610af8565b6102ef565b6040516101259190610b4d565b61015661030c565b6040516101259190610f05565b610141610171366004610abd565b610312565b61017e6103ab565b6040516101259190610f0e565b610141610199366004610af8565b6103b0565b6101b16101ac366004610af8565b610404565b005b6101b16101c1366004610b21565b610451565b6101566101d4366004610a6a565b610465565b6101b1610484565b6101b16101ef366004610af8565b6104cf565b6101fc610522565b6040516101259190610b39565b610118610531565b61014161021f366004610af8565b610540565b610141610232366004610af8565b6105b9565b610156610245366004610a8b565b6105cd565b6101b1610258366004610a6a565b6105f8565b60606003805461026c90610f4b565b80601f016020809104026020016040519081016040528092919081815260200182805461029890610f4b565b80156102e55780601f106102ba576101008083540402835291602001916102e5565b820191906000526020600020905b8154815290600101906020018083116102c857829003601f168201915b5050505050905090565b60006103036102fc610666565b848461066a565b50600192915050565b60025490565b600061031f84848461071e565b6001600160a01b038416600090815260016020526040812081610340610666565b6001600160a01b03166001600160a01b031681526020019081526020016000205490508281101561038c5760405162461bcd60e51b815260040161038390610cfe565b60405180910390fd5b6103a085610398610666565b85840361066a565b506001949350505050565b601290565b60006103036103bd610666565b8484600160006103cb610666565b6001600160a01b03908116825260208083019390935260409182016000908120918b16815292529020546103ff9190610f1c565b61066a565b61040c610666565b6001600160a01b031661041d610522565b6001600160a01b0316146104435760405162461bcd60e51b815260040161038390610d46565b61044d8282610848565b5050565b61046261045c610666565b82610910565b50565b6001600160a01b0381166000908152602081905260409020545b919050565b61048c610666565b6001600160a01b031661049d610522565b6001600160a01b0316146104c35760405162461bcd60e51b815260040161038390610d46565b6104cd6000610a01565b565b60006104dd83610245610666565b9050818110156104ff5760405162461bcd60e51b815260040161038390610d7b565b6105138361050b610666565b84840361066a565b61051d8383610910565b505050565b6005546001600160a01b031690565b60606004805461026c90610f4b565b6000806001600061054f610666565b6001600160a01b039081168252602080830193909352604091820160009081209188168152925290205490508281101561059b5760405162461bcd60e51b815260040161038390610e89565b6105af6105a6610666565b8585840361066a565b5060019392505050565b60006103036105c6610666565b848461071e565b6001600160a01b03918216600090815260016020908152604080832093909416825291909152205490565b610600610666565b6001600160a01b0316610611610522565b6001600160a01b0316146106375760405162461bcd60e51b815260040161038390610d46565b6001600160a01b03811661065d5760405162461bcd60e51b815260040161038390610c30565b61046281610a01565b3390565b6001600160a01b0383166106905760405162461bcd60e51b815260040161038390610e45565b6001600160a01b0382166106b65760405162461bcd60e51b815260040161038390610c76565b6001600160a01b0380841660008181526001602090815260408083209487168084529490915290819020849055517f8c5be1e5ebec7d5bd14f71427d1e84f3dd0314c0f7b2291e5b200ac8c7c3b92590610711908590610f05565b60405180910390a3505050565b6001600160a01b0383166107445760405162461bcd60e51b815260040161038390610e00565b6001600160a01b03821661076a5760405162461bcd60e51b815260040161038390610bab565b61077583838361051d565b6001600160a01b038316600090815260208190526040902054818110156107ae5760405162461bcd60e51b815260040161038390610cb8565b6001600160a01b038085166000908152602081905260408082208585039055918516815290812080548492906107e5908490610f1c565b92505081905550826001600160a01b0316846001600160a01b03167fddf252ad1be2c89b69c2b068fc378daa952ba7f163c4a11628f55a4df523b3ef8460405161082f9190610f05565b60405180910390a361084284848461051d565b50505050565b6001600160a01b03821661086e5760405162461bcd60e51b815260040161038390610ece565b61087a6000838361051d565b806002600082825461088c9190610f1c565b90915550506001600160a01b038216600090815260208190526040812080548392906108b9908490610f1c565b90915550506040516001600160a01b038316906000907fddf252ad1be2c89b69c2b068fc378daa952ba7f163c4a11628f55a4df523b3ef906108fc908590610f05565b60405180910390a361044d6000838361051d565b6001600160a01b0382166109365760405162461bcd60e51b815260040161038390610dbf565b6109428260008361051d565b6001600160a01b0382166000908152602081905260409020548181101561097b5760405162461bcd60e51b815260040161038390610bee565b6001600160a01b03831660009081526020819052604081208383039055600280548492906109aa908490610f34565b90915550506040516000906001600160a01b038516907fddf252ad1be2c89b69c2b068fc378daa952ba7f163c4a11628f55a4df523b3ef906109ed908690610f05565b60405180910390a361051d8360008461051d565b600580546001600160a01b038381166001600160a01b0319831681179093556040519116919082907f8be0079c531659141344cd1fd0a4f28419497f9722a3daafe3b4186f6b6457e090600090a35050565b80356001600160a01b038116811461047f57600080fd5b600060208284031215610a7b578081fd5b610a8482610a53565b9392505050565b60008060408385031215610a9d578081fd5b610aa683610a53565b9150610ab460208401610a53565b90509250929050565b600080600060608486031215610ad1578081fd5b610ada84610a53565b9250610ae860208501610a53565b9150604084013590509250925092565b60008060408385031215610b0a578182fd5b610b1383610a53565b946020939093013593505050565b600060208284031215610b32578081fd5b5035919050565b6001600160a01b0391909116815260200190565b901515815260200190565b6000602080835283518082850152825b81811015610b8457858101830151858201604001528201610b68565b81811115610b955783604083870101525b50601f01601f1916929092016040019392505050565b60208082526023908201527f45524332303a207472616e7366657220746f20746865207a65726f206164647260408201526265737360e81b606082015260800190565b60208082526022908201527f45524332303a206275726e20616d6f756e7420657863656564732062616c616e604082015261636560f01b606082015260800190565b60208082526026908201527f4f776e61626c653a206e6577206f776e657220697320746865207a65726f206160408201526564647265737360d01b606082015260800190565b60208082526022908201527f45524332303a20617070726f766520746f20746865207a65726f206164647265604082015261737360f01b606082015260800190565b60208082526026908201527f45524332303a207472616e7366657220616d6f756e7420657863656564732062604082015265616c616e636560d01b606082015260800190565b60208082526028908201527f45524332303a207472616e7366657220616d6f756e74206578636565647320616040820152676c6c6f77616e636560c01b606082015260800190565b6020808252818101527f4f776e61626c653a2063616c6c6572206973206e6f7420746865206f776e6572604082015260600190565b60208082526024908201527f45524332303a206275726e20616d6f756e74206578636565647320616c6c6f77604082015263616e636560e01b606082015260800190565b60208082526021908201527f45524332303a206275726e2066726f6d20746865207a65726f206164647265736040820152607360f81b606082015260800190565b60208082526025908201527f45524332303a207472616e736665722066726f6d20746865207a65726f206164604082015264647265737360d81b606082015260800190565b60208082526024908201527f45524332303a20617070726f76652066726f6d20746865207a65726f206164646040820152637265737360e01b606082015260800190565b60208082526025908201527f45524332303a2064656372656173656420616c6c6f77616e63652062656c6f77604082015264207a65726f60d81b606082015260800190565b6020808252601f908201527f45524332303a206d696e7420746f20746865207a65726f206164647265737300604082015260600190565b90815260200190565b60ff91909116815260200190565b60008219821115610f2f57610f2f610f86565b500190565b600082821015610f4657610f46610f86565b500390565b600281046001821680610f5f57607f821691505b60208210811415610f8057634e487b7160e01b600052602260045260246000fd5b50919050565b634e487b7160e01b600052601160045260246000fdfea2646970667358221220c991236c201fb6bc5209cd5e62c9e1d46a871a363696dcb1a92424fe41f31f1964736f6c6343000800003360806040523480156200001157600080fd5b5060405162000f6a38038062000f6a8339810160408190526200003491620002e1565b8351849084906200004d90600390602085019062000190565b5080516200006390600490602084019062000190565b5050506200009a816200007b620000a460201b60201c565b6200008890600a6200041a565b62000094908562000512565b620000a9565b505050506200059d565b601290565b6001600160a01b038216620000db5760405162461bcd60e51b8152600401620000d29062000372565b60405180910390fd5b620000e9600083836200018b565b8060026000828254620000fd9190620003b2565b90915550506001600160a01b038216600090815260208190526040812080548392906200012c908490620003b2565b90915550506040516001600160a01b038316906000907fddf252ad1be2c89b69c2b068fc378daa952ba7f163c4a11628f55a4df523b3ef9062000171908590620003a9565b60405180910390a362000187600083836200018b565b5050565b505050565b8280546200019e9062000534565b90600052602060002090601f016020900481019282620001c257600085556200020d565b82601f10620001dd57805160ff19168380011785556200020d565b828001600101855582156200020d579182015b828111156200020d578251825591602001919060010190620001f0565b506200021b9291506200021f565b5090565b5b808211156200021b576000815560010162000220565b600082601f83011262000247578081fd5b81516001600160401b038082111562000264576200026462000587565b6040516020601f8401601f19168201810183811183821017156200028c576200028c62000587565b6040528382528584018101871015620002a3578485fd5b8492505b83831015620002c65785830181015182840182015291820191620002a7565b83831115620002d757848185840101525b5095945050505050565b60008060008060808587031215620002f7578384fd5b84516001600160401b03808211156200030e578586fd5b6200031c8883890162000236565b9550602087015191508082111562000332578485fd5b50620003418782880162000236565b60408701516060880151919550935090506001600160a01b038116811462000367578182fd5b939692955090935050565b6020808252601f908201527f45524332303a206d696e7420746f20746865207a65726f206164647265737300604082015260600190565b90815260200190565b60008219821115620003c857620003c862000571565b500190565b80825b6001808611620003e1575062000411565b818704821115620003f657620003f662000571565b808616156200040457918102915b9490941c938002620003d0565b94509492505050565b60006200042e60001960ff85168462000435565b9392505050565b60008262000446575060016200042e565b8162000455575060006200042e565b81600181146200046e57600281146200047957620004ad565b60019150506200042e565b60ff8411156200048d576200048d62000571565b6001841b915084821115620004a657620004a662000571565b506200042e565b5060208310610133831016604e8410600b8410161715620004e5575081810a83811115620004df57620004df62000571565b6200042e565b620004f48484846001620003cd565b80860482111562000509576200050962000571565b02949350505050565b60008160001904831182151516156200052f576200052f62000571565b500290565b6002810460018216806200054957607f821691505b602082108114156200056b57634e487b7160e01b600052602260045260246000fd5b50919050565b634e487b7160e01b600052601160045260246000fd5b634e487b7160e01b600052604160045260246000fd5b6109bd80620005ad6000396000f3fe608060405234801561001057600080fd5b50600436106100a95760003560e01c80633950935111610071578063395093511461012957806370a082311461013c57806395d89b411461014f578063a457c2d714610157578063a9059cbb1461016a578063dd62ed3e1461017d576100a9565b806306fdde03146100ae578063095ea7b3146100cc57806318160ddd146100ec57806323b872dd14610101578063313ce56714610114575b600080fd5b6100b6610190565b6040516100c391906106dd565b60405180910390f35b6100df6100da3660046106a9565b610222565b6040516100c391906106d2565b6100f461023f565b6040516100c39190610911565b6100df61010f36600461066e565b610245565b61011c6102de565b6040516100c3919061091a565b6100df6101373660046106a9565b6102e3565b6100f461014a36600461061b565b610337565b6100b6610356565b6100df6101653660046106a9565b610365565b6100df6101783660046106a9565b6103de565b6100f461018b36600461063c565b6103f2565b60606003805461019f9061094c565b80601f01602080910402602001604051908101604052809291908181526020018280546101cb9061094c565b80156102185780601f106101ed57610100808354040283529160200191610218565b820191906000526020600020905b8154815290600101906020018083116101fb57829003601f168201915b5050505050905090565b600061023661022f61041d565b8484610421565b50600192915050565b60025490565b60006102528484846104d5565b6001600160a01b03841660009081526001602052604081208161027361041d565b6001600160a01b03166001600160a01b03168152602001908152602001600020549050828110156102bf5760405162461bcd60e51b81526004016102b6906107fb565b60405180910390fd5b6102d3856102cb61041d565b858403610421565b506001949350505050565b601290565b60006102366102f061041d565b8484600160006102fe61041d565b6001600160a01b03908116825260208083019390935260409182016000908120918b16815292529020546103329190610928565b610421565b6001600160a01b0381166000908152602081905260409020545b919050565b60606004805461019f9061094c565b6000806001600061037461041d565b6001600160a01b03908116825260208083019390935260409182016000908120918816815292529020549050828110156103c05760405162461bcd60e51b81526004016102b6906108cc565b6103d46103cb61041d565b85858403610421565b5060019392505050565b60006102366103eb61041d565b84846104d5565b6001600160a01b03918216600090815260016020908152604080832093909416825291909152205490565b3390565b6001600160a01b0383166104475760405162461bcd60e51b81526004016102b690610888565b6001600160a01b03821661046d5760405162461bcd60e51b81526004016102b690610773565b6001600160a01b0380841660008181526001602090815260408083209487168084529490915290819020849055517f8c5be1e5ebec7d5bd14f71427d1e84f3dd0314c0f7b2291e5b200ac8c7c3b925906104c8908590610911565b60405180910390a3505050565b6001600160a01b0383166104fb5760405162461bcd60e51b81526004016102b690610843565b6001600160a01b0382166105215760405162461bcd60e51b81526004016102b690610730565b61052c8383836105ff565b6001600160a01b038316600090815260208190526040902054818110156105655760405162461bcd60e51b81526004016102b6906107b5565b6001600160a01b0380851660009081526020819052604080822085850390559185168152908120805484929061059c908490610928565b92505081905550826001600160a01b0316846001600160a01b03167fddf252ad1be2c89b69c2b068fc378daa952ba7f163c4a11628f55a4df523b3ef846040516105e69190610911565b60405180910390a36105f98484846105ff565b50505050565b505050565b80356001600160a01b038116811461035157600080fd5b60006020828403121561062c578081fd5b61063582610604565b9392505050565b6000806040838503121561064e578081fd5b61065783610604565b915061066560208401610604565b90509250929050565b600080600060608486031215610682578081fd5b61068b84610604565b925061069960208501610604565b9150604084013590509250925092565b600080604083850312156106bb578182fd5b6106c483610604565b946020939093013593505050565b901515815260200190565b6000602080835283518082850152825b81811015610709578581018301518582016040015282016106ed565b8181111561071a5783604083870101525b50601f01601f1916929092016040019392505050565b60208082526023908201527f45524332303a207472616e7366657220746f20746865207a65726f206164647260408201526265737360e81b606082015260800190565b60208082526022908201527f45524332303a20617070726f766520746f20746865207a65726f206164647265604082015261737360f01b606082015260800190565b60208082526026908201527f45524332303a207472616e7366657220616d6f756e7420657863656564732062604082015265616c616e636560d01b606082015260800190565b60208082526028908201527f45524332303a207472616e7366657220616d6f756e74206578636565647320616040820152676c6c6f77616e636560c01b606082015260800190565b60208082526025908201527f45524332303a207472616e736665722066726f6d20746865207a65726f206164604082015264647265737360d81b606082015260800190565b60208082526024908201527f45524332303a20617070726f76652066726f6d20746865207a65726f206164646040820152637265737360e01b606082015260800190565b60208082526025908201527f45524332303a2064656372656173656420616c6c6f77616e63652062656c6f77604082015264207a65726f60d81b606082015260800190565b90815260200190565b60ff91909116815260200190565b6000821982111561094757634e487b7160e01b81526011600452602481fd5b500190565b60028104600182168061096057607f821691505b6020821081141561098157634e487b7160e01b600052602260045260246000fd5b5091905056fea2646970667358221220c695b6c7732e91c37542ed1862db780f927d7f106d7f07c10ed247631831aca464736f6c6343000800003360806040523480156200001157600080fd5b50604051620010ae380380620010ae8339810160408190526200003491620002c9565b8351849084906200004d90600390602085019062000178565b5080516200006390600490602084019062000178565b505050620000878183670de0b6b3a7640000620000819190620003b5565b62000091565b5050505062000440565b6001600160a01b038216620000c35760405162461bcd60e51b8152600401620000ba906200035a565b60405180910390fd5b620000d16000838362000173565b8060026000828254620000e591906200039a565b90915550506001600160a01b03821660009081526020819052604081208054839290620001149084906200039a565b90915550506040516001600160a01b038316906000907fddf252ad1be2c89b69c2b068fc378daa952ba7f163c4a11628f55a4df523b3ef906200015990859062000391565b60405180910390a36200016f6000838362000173565b5050565b505050565b8280546200018690620003d7565b90600052602060002090601f016020900481019282620001aa5760008555620001f5565b82601f10620001c557805160ff1916838001178555620001f5565b82800160010185558215620001f5579182015b82811115620001f5578251825591602001919060010190620001d8565b506200020392915062000207565b5090565b5b8082111562000203576000815560010162000208565b600082601f8301126200022f578081fd5b81516001600160401b03808211156200024c576200024c6200042a565b6040516020601f8401601f19168201810183811183821017156200027457620002746200042a565b60405283825285840181018710156200028b578485fd5b8492505b83831015620002ae57858301810151828401820152918201916200028f565b83831115620002bf57848185840101525b5095945050505050565b60008060008060808587031215620002df578384fd5b84516001600160401b0380821115620002f6578586fd5b62000304888389016200021e565b955060208701519150808211156200031a578485fd5b5062000329878288016200021e565b60408701516060880151919550935090506001600160a01b03811681146200034f578182fd5b939692955090935050565b6020808252601f908201527f45524332303a206d696e7420746f20746865207a65726f206164647265737300604082015260600190565b90815260200190565b60008219821115620003b057620003b062000414565b500190565b6000816000190483118215151615620003d257620003d262000414565b500290565b600281046001821680620003ec57607f821691505b602082108114156200040e57634e487b7160e01b600052602260045260246000fd5b50919050565b634e487b7160e01b600052601160045260246000fd5b634e487b7160e01b600052604160045260246000fd5b610c5e80620004506000396000f3fe608060405234801561001057600080fd5b50600436106100cf5760003560e01c806342966c681161008c57806395d89b411161006657806395d89b411461019d578063a457c2d7146101a5578063a9059cbb146101b8578063dd62ed3e146101cb576100cf565b806342966c681461016257806370a082311461017757806379cc67901461018a576100cf565b806306fdde03146100d4578063095ea7b3146100f257806318160ddd1461011257806323b872dd14610127578063313ce5671461013a578063395093511461014f575b600080fd5b6100dc6101de565b6040516100e99190610896565b60405180910390f35b61010561010036600461084a565b610270565b6040516100e9919061088b565b61011a61028d565b6040516100e99190610b91565b61010561013536600461080f565b610293565b61014261032c565b6040516100e99190610b9a565b61010561015d36600461084a565b610331565b610175610170366004610873565b610385565b005b61011a6101853660046107bc565b610399565b61017561019836600461084a565b6103b8565b6100dc61040b565b6101056101b336600461084a565b61041a565b6101056101c636600461084a565b610493565b61011a6101d93660046107dd565b6104a7565b6060600380546101ed90610bd7565b80601f016020809104026020016040519081016040528092919081815260200182805461021990610bd7565b80156102665780601f1061023b57610100808354040283529160200191610266565b820191906000526020600020905b81548152906001019060200180831161024957829003601f168201915b5050505050905090565b600061028461027d6104d2565b84846104d6565b50600192915050565b60025490565b60006102a084848461058a565b6001600160a01b0384166000908152600160205260408120816102c16104d2565b6001600160a01b03166001600160a01b031681526020019081526020016000205490508281101561030d5760405162461bcd60e51b8152600401610304906109f6565b60405180910390fd5b610321856103196104d2565b8584036104d6565b506001949350505050565b601290565b600061028461033e6104d2565b84846001600061034c6104d2565b6001600160a01b03908116825260208083019390935260409182016000908120918b16815292529020546103809190610ba8565b6104d6565b6103966103906104d2565b826106b4565b50565b6001600160a01b0381166000908152602081905260409020545b919050565b60006103c6836101d96104d2565b9050818110156103e85760405162461bcd60e51b815260040161030490610a3e565b6103fc836103f46104d2565b8484036104d6565b61040683836106b4565b505050565b6060600480546101ed90610bd7565b600080600160006104296104d2565b6001600160a01b03908116825260208083019390935260409182016000908120918816815292529020549050828110156104755760405162461bcd60e51b815260040161030490610b4c565b6104896104806104d2565b858584036104d6565b5060019392505050565b60006102846104a06104d2565b848461058a565b6001600160a01b03918216600090815260016020908152604080832093909416825291909152205490565b3390565b6001600160a01b0383166104fc5760405162461bcd60e51b815260040161030490610b08565b6001600160a01b0382166105225760405162461bcd60e51b81526004016103049061096e565b6001600160a01b0380841660008181526001602090815260408083209487168084529490915290819020849055517f8c5be1e5ebec7d5bd14f71427d1e84f3dd0314c0f7b2291e5b200ac8c7c3b9259061057d908590610b91565b60405180910390a3505050565b6001600160a01b0383166105b05760405162461bcd60e51b815260040161030490610ac3565b6001600160a01b0382166105d65760405162461bcd60e51b8152600401610304906108e9565b6105e1838383610406565b6001600160a01b0383166000908152602081905260409020548181101561061a5760405162461bcd60e51b8152600401610304906109b0565b6001600160a01b03808516600090815260208190526040808220858503905591851681529081208054849290610651908490610ba8565b92505081905550826001600160a01b0316846001600160a01b03167fddf252ad1be2c89b69c2b068fc378daa952ba7f163c4a11628f55a4df523b3ef8460405161069b9190610b91565b60405180910390a36106ae848484610406565b50505050565b6001600160a01b0382166106da5760405162461bcd60e51b815260040161030490610a82565b6106e682600083610406565b6001600160a01b0382166000908152602081905260409020548181101561071f5760405162461bcd60e51b81526004016103049061092c565b6001600160a01b038316600090815260208190526040812083830390556002805484929061074e908490610bc0565b90915550506040516000906001600160a01b038516907fddf252ad1be2c89b69c2b068fc378daa952ba7f163c4a11628f55a4df523b3ef90610791908690610b91565b60405180910390a361040683600084610406565b80356001600160a01b03811681146103b357600080fd5b6000602082840312156107cd578081fd5b6107d6826107a5565b9392505050565b600080604083850312156107ef578081fd5b6107f8836107a5565b9150610806602084016107a5565b90509250929050565b600080600060608486031215610823578081fd5b61082c846107a5565b925061083a602085016107a5565b9150604084013590509250925092565b6000806040838503121561085c578182fd5b610865836107a5565b946020939093013593505050565b600060208284031215610884578081fd5b5035919050565b901515815260200190565b6000602080835283518082850152825b818110156108c2578581018301518582016040015282016108a6565b818111156108d35783604083870101525b50601f01601f1916929092016040019392505050565b60208082526023908201527f45524332303a207472616e7366657220746f20746865207a65726f206164647260408201526265737360e81b606082015260800190565b60208082526022908201527f45524332303a206275726e20616d6f756e7420657863656564732062616c616e604082015261636560f01b606082015260800190565b60208082526022908201527f45524332303a20617070726f766520746f20746865207a65726f206164647265604082015261737360f01b606082015260800190565b60208082526026908201527f45524332303a207472616e7366657220616d6f756e7420657863656564732062604082015265616c616e636560d01b606082015260800190565b60208082526028908201527f45524332303a207472616e7366657220616d6f756e74206578636565647320616040820152676c6c6f77616e636560c01b606082015260800190565b60208082526024908201527f45524332303a206275726e20616d6f756e74206578636565647320616c6c6f77604082015263616e636560e01b606082015260800190565b60208082526021908201527f45524332303a206275726e2066726f6d20746865207a65726f206164647265736040820152607360f81b606082015260800190565b60208082526025908201527f45524332303a207472616e736665722066726f6d20746865207a65726f206164604082015264647265737360d81b606082015260800190565b60208082526024908201527f45524332303a20617070726f76652066726f6d20746865207a65726f206164646040820152637265737360e01b606082015260800190565b60208082526025908201527f45524332303a2064656372656173656420616c6c6f77616e63652062656c6f77604082015264207a65726f60d81b606082015260800190565b90815260200190565b60ff91909116815260200190565b60008219821115610bbb57610bbb610c12565b500190565b600082821015610bd257610bd2610c12565b500390565b600281046001821680610beb57607f821691505b60208210811415610c0c57634e487b7160e01b600052602260045260246000fd5b50919050565b634e487b7160e01b600052601160045260246000fdfea2646970667358221220649d0aaa2cceb4b5731962b7d7c19b9506ca06b76d1bb99a39ce4b2ddfe4e84464736f6c63430008000033a26469706673582212207f580eb093e0b231ae7ed74750ef61384da2561c041690d4233d7025f957cc0d64736f6c63430008000033",
  "immutableReferences": {},
  "source": "//SPDX-License-Identifier: UNLICENSED\r\npragma solidity ^0.8.0;\r\n\r\nimport \"./tokens/CLTokenSimple.sol\";\r\nimport \"./tokens/CLMintableToken.sol\";\r\nimport \"./tokens/CLBurnableToken.sol\";\r\nimport \"./tokens/CLMintableBurnableToken.sol\";\r\n\r\ncontract CryptoLauncher {\r\n\r\n    address _owner = 0x5B38Da6a701c568545dCfcB03FcB875f56beddC4;\r\n\r\n    uint256 _simpleTokenFee = 20000000000000000;\r\n    uint256 _mintableTokenFee = 25000000000000000;\r\n    uint256 _burnableTokenFee = 30000000000000000;\r\n    uint256 _mintableBurnableTokenFee = 40000000000000000;\r\n\r\n    //Owner => Token\r\n    mapping(address => LaunchedToken[]) public _launchedTokens;\r\n\r\n    enum TokenType{ SIMPLE_TOKEN, MINTABLE_TOKEN, BURNABLE_TOKEN, MINTABLE_BURNABLE_TOKEN }\r\n\r\n    struct LaunchedToken {\r\n        TokenType tokenType;\r\n        ERC20 token;\r\n    }\r\n\r\n    function getMyLaunchedTokensLength() public view returns(uint){\r\n        return _launchedTokens[address(msg.sender)].length;\r\n    }\r\n    function getMyLaunchedToken(uint index) public view returns(LaunchedToken memory){\r\n        return _launchedTokens[address(msg.sender)][index];\r\n    }\r\n\r\n    function launchSimpleToken(string memory name, string memory symbol, uint256 totalSupply) public payable {\r\n        require(msg.value >= _simpleTokenFee, \"Fee required\");\r\n        CLTokenSimple launchedToken = new CLTokenSimple(name, symbol, totalSupply, address(msg.sender));\r\n        _launchedTokens[address(msg.sender)].push(LaunchedToken(TokenType.SIMPLE_TOKEN, launchedToken));\r\n    }\r\n    function launchMintableToken(string memory name, string memory symbol, uint256 totalSupply) public payable {\r\n        require(msg.value >= _mintableTokenFee, \"Fee required\");\r\n        CLMintableToken launchedToken = new CLMintableToken(name, symbol, totalSupply, address(msg.sender));\r\n        _launchedTokens[address(msg.sender)].push(LaunchedToken(TokenType.MINTABLE_TOKEN, launchedToken));\r\n    }\r\n    function launchBurnableToken(string memory name, string memory symbol, uint256 totalSupply) public payable {\r\n        require(msg.value >= _burnableTokenFee, \"Fee required\");\r\n        CLBurnableToken launchedToken = new CLBurnableToken(name, symbol, totalSupply, address(msg.sender));\r\n        _launchedTokens[address(msg.sender)].push(LaunchedToken(TokenType.BURNABLE_TOKEN, launchedToken));\r\n    }\r\n    function launchMintableBurnableToken(string memory name, string memory symbol, uint256 totalSupply) public payable {\r\n        require(msg.value >= _mintableBurnableTokenFee, \"Fee required\");\r\n        CLMintableBurnableToken launchedToken = new CLMintableBurnableToken(name, symbol, totalSupply, address(msg.sender));\r\n        _launchedTokens[address(msg.sender)].push(LaunchedToken(TokenType.MINTABLE_BURNABLE_TOKEN, launchedToken));\r\n    }\r\n\r\n    modifier onlyCL() {\r\n        require(_owner == address(msg.sender), \"Caller is not the owner\");\r\n        _;\r\n    }\r\n\r\n    function setFee(uint action, uint256 value) onlyCL public {\r\n        if(action == uint(TokenType.SIMPLE_TOKEN)){\r\n            _simpleTokenFee = value;\r\n            return;\r\n        }else if(action == uint(TokenType.MINTABLE_TOKEN)){\r\n            _mintableTokenFee = value;\r\n            return;\r\n        }else if(action == uint(TokenType.BURNABLE_TOKEN)){\r\n            _burnableTokenFee = value;\r\n            return;\r\n        }else if(action == uint(TokenType.MINTABLE_BURNABLE_TOKEN)){\r\n            _mintableTokenFee = value;\r\n            return;\r\n        }\r\n    }\r\n\r\n    function withdrawFunds() onlyCL external {\r\n        require(payable(msg.sender).send(address(this).balance));\r\n    }\r\n\r\n}",
  "sourcePath": "D:\\Projetos\\cryptolauncher\\contracts\\CryptoLauncher.sol",
  "compiler": {
    "name": "solc",
    "version": "0.8.0+commit.c7dfd78e.Emscripten.clang"
  },
  "schemaVersion": "3.4.4",
  "updatedAt": "2021-12-19T21:50:46.862Z",
  "devdoc": {
    "kind": "dev",
    "methods": {},
    "version": 1
  },
  "userdoc": {
    "kind": "user",
    "methods": {},
    "version": 1
  }
}